:040000000C9401015A
:080008000C944F010C947901E6
:040014000C94250221
:040034000C943401F3
:04004C000C943D01D2
:1400B8008813C409E204E204E204E2040102040810204003B2
:1400CC0002001800010000012A07FFFF008CA005FFFF02BFE5
:1400E00020FFFFFF000000FFFFFF000000000007D000000417
:1400F400B01EFA1EFA7B285E6E2D67772A7F6F3F75537C57AC
:1401080017002C400244685551793414741F703D04020305FD
:14011C00060A0F141E323C4B500101020205050A0A14141415
:14013000140032190A050202020102050A14320002040810D1
:14014400200F0504040000000B010D0404000000040C060430
:140158001E000000030A0B0404001200050A0B040400090018
:14016C00050C0D0404001200050C0D04040009000207070404
:140180001E000000050809041E00000003000F0F02000000F2
:1401940002050C010B000000000100000C0000000200000029
:1401A8000000000000050C020B000000000200000C00000017
:1401BC000200000000000000000904000F0000000009000008
:1401D00000100000000102040810204080000000000000000C
:1401E4000000000000000000000000090000000000000000FE
:0901F800000000000000004C04AE
:14020200A0E0B1E000240D92B930E8F3A030D8F3CFEFD8E03F
:14021600CDBFDEBFC852D0400AEA08830024E4E2F1E013E054
:14022A00E738F10711F00192FBCF0083EDEDF1E0A0E0B1E00C
:14023E0012E000E00BBFE130F10721F0C89531960D92F9CF6B
:140252006ED4FFCF00931C0101C0A89520901C012220D9F7FB
:1402660008950A930FB70A930091C60009910FBF09911895E1
:14027A008A939A938FB78A938091780090917900937090937A
:14028E0086038093850389918FBF9991899118950E94733199
:1402A2008091D6018F3078F02090390125FC0BC02DD0013035
:1402B60041F464D2013029F480913901806280933901099068
:1402CA000FBEF991E9910E94C33439912991199109919990C5
:1402DE008990799069905990499039902990199009901895BE
:1402F2008A938FB78A931B9905C080913B01886080933B017B
:1403060089918FBF899118950E941230442738C066272CC0F4
:14031A00AA24BB2409C00E94313680E790E08A159B0510F436
:14032E00002755C0639BF5CF04ED10E00E94E008639905C091
:140342000E94B9348F77808312C00E94B93480688083AA24F5
:14035600BB2409C00E94313680EE90E08A159B0510F400279A
:14036A0038C06399F5CF6395683008F4D1CF8091B00187361C
:14037E0011F000272CC04395423008F4C5CF2090B101209269
:14039200B301422D4A3091F0413081F04D3071F0453061F0B3
:1403A600433051F04F3041F04E3031F0222021F0473011F075
:1403BA004E3439F489EF8093130122242092200107C08091F0
:1403CE00B3018C3019F489EF8093130101E00C94173000EE49
:1403E2002FB1207E203899F080E8821718F0203651F00EC03A
:1403F600203A49F0203A50F0203C09F007C000EC05C000E613
:14040A0003C000EA01C000E80895AA92A02E14E10A2D0E9413
:14041E00902F00931501A398A990089522242092B0002092F7
:14043200B60080E78093B20080E98093B300089586E080938F
:14044600B00008950E9473314A935A9380E78093B200209069
:14045A001C01222021F0822D815080931C01809114018F5F5A
:14046E00282E20921401882319F48FEF809314012090150139
:14048200822D815080931501222009F4A39A409179014F5F48
:1404960040937901442319F48FEF80937901409174014F5F92
:1404AA0040937401442319F48FEF80937401409178014F5F84
:1404BE0040937801442319F48FEF80937801409121014F5FBF
:1404D20040932101442319F48FEF80932101409176014F5F04
:1404E60040937601442319F48FEF8093760140911E014F5F9E
:1404FA0040931E01442319F48FEF80931E01409177014F5FE1
:14050E0040937701442331F48FEF0E948937806180933801F5
:14052200409116024F5F409316024233B8F040911D014F5F89
:1405360040931D01442319F48FEF80931D01409113014F5F0A
:14054A0040931301442319F48FEF809313012224209216028D
:14055E00809113018F3F10F45C9A01C05C9840911901842F49
:140572008F5F8093190184E1841738F40FEC11E00E94D113BC
:140586002224209219014091D601842F8F5F8093D6018FE0AD
:14059A00841718F480E18093D601409119024F5F40931902D3
:1405AE00442341F48FEF8093190280913B01846080933B0171
:1405C2004091170250911802CA010196909318028093170275
:1405D600483BEBE05E0758F080911F018F5F80931F0122247E
:1405EA00332430921802209217024091DF014F5F4093DF01ED
:1405FE00442319F48FEF8093DF0140916E014F5F40936E01D4
:14061200442319F48FEF80936E01409172014F5F4093720128
:140626008AEF841718F48CEF80937201409170014F5F4093DC
:14063A0070018AEF841718F48CEF80937001409175014F5F27
:14064E00409375018AEF841718F48CEF809375015991499167
:1406620009900FBEF991E9910E94C3343991299119910991B9
:140676009990899079906990599049903990299019900990A6
:14068A001895222422B821B889E985B981E184B928B827B8A8
:14069E002BB880E18AB92EB880E48DB980EF81BB80E180BBEA
:1406B20088E084BB83BB08952F9A81B3806E81BB08952F9827
:1406C60081B38F7181BB0895A8958FE1809360008FE0809371
:1406DA006000A895089588E180936000222420926000089501
:1406EE0080E38DBB0895F89480E885BFC8DFE8DF03E00E9485
:14070200C02D0E94E92D90DE9BDE0E94822E80E880BF222418
:1407160020926E0020926F0081E08093700088E080936B00C4
:14072A0080936C0080E28DBB209269000E94C3167894089553
:14073E00809139018B7F8093390122242092140148DE00369C
:1407520081F401E00E94B2250CC0A895809114018F3F39F49A
:140766008091390184608093390101E006C01F9903C033DED0
:14077A00003879F301E0089501E02091B301222309F435C0CC
:14078E002130D9F0233029F12530F9F0273089F12A3079F0FE
:1407A2002C3009F434C02D3091F02E3001F12F30D1F0203058
:1407B60008F43FC02E3429F13CC081E88093F70139C082E8E5
:1407CA008093F70135C087E88093F70131C084E88093F70139
:1407DE002DC080E98093F70129C083E88093F70125C086E8F4
:1407F2008093F70121C081E98093F7011DC085E88093F7013D
:1408060019C089E88093F70115C0809120018F5F282E20928C
:14081A002001893038F088E88093F70122242092200106C06E
:14082E0022242092D601002701C0002708950230B9F000233D
:1408420041F42224209258010E9440312092D6010DC0013082
:1408560031F40E94403122242092D60105C0043019F422243B
:14086A002092580108954A9344270CC00E94FE150E941A3815
:14087E00EBDC0E94D01609E1E7DC0E94DB164395423090F30A
:14089200499108950E940230629720903D0120FE04C080E3DB
:1408A6008093A50203C081E38093A5028CE28093A6022090CA
:1408BA003D0124FE3AC080E28093A7028093A8028093A90237
:1408CE008093AA028093AB028FE48093AC028CE48093AD0231
:1408E2008CE28093AE0280E28093AF028093B0028093B10220
:1408F6008093B2028093B3028FE48093B4028CE48093B502E9
:14090A008CE28093B60280E28093B7028093B8028093B902D7
:14091E008093BA028093BB028FE48093BC028CE48093BD02A0
:14093200F4C00E948A3520914F023091500200914D02109106
:140946004E020E94440B0E94F61BA02E20903A0121FE04C00D
:14095A008DE28093A70203C080E38093A7024A2D55274870D1
:14096E0050704030450751F00E941A348EE28093AA028C818C
:14098200805D0E94CA322BC0A2FE08C00E941A340E94BB370F
:140996008EE20E94CA3221C0A1FE10C00E941A340E94BB376B
:1409AA008D81805D8093AB028EE28093AC028E81805D80935E
:1409BE00AD020FC080E38093A8028A81805D8093A9028B81D5
:1409D200805D8093AA028C81805D0E94CA328CE28093AE02BC
:1409E6000E948A3520914B0230914C020091490210914A02C6
:1409FA0046D680E38093AF024030450781F08A81805D80937E
:140A0E00B0028B81805D8093B1028EE28093B2028C81805D52
:140A22000E94BF3227C0A2FE06C00E94FB338EE20E94BF320D
:140A36001FC0A1FE0EC00E94FB338D81805D8093B3028EE26D
:140A4A008093B4028E81805D8093B5020FC080E38093B00222
:140A5E008A81805D8093B1028B81805D8093B2028C81805D3C
:140A72000E94BF328CE28093B6020E948A3520914702309188
:140A860048020091450210914602FBD520903A0121FE04C0B3
:140A9A008DE28093B70203C080E38093B7024030450781F0EE
:140AAE008A81805D8093B8028B81805D8093B9028EE2809345
:140AC200BA028C81805D0E94A33227C0A2FE06C00E94B13330
:140AD6008EE20E94A3321FC0A1FE0EC00E94B1338D81805D68
:140AEA008093BB028EE28093BC028E81805D8093BD020FC05A
:140AFE0080E38093B8028A81805D8093B9028B81805D809302
:140B1200BA028C81805D0E94A3328DE08093BE028AE08093F5
:140B2600BF0201E062960C940730E1DD0E94282E03DE0E9411
:140B3A008A112090370123FE09C095DE0E94D0168FEF8093AE
:140B4E00130101C0A895FECF0E94332E8ADE44270CC00E9470
:140B620016160E941A3876DB0E94D01609E172DB0E94DB16BC
:140B76004395423090F30CEA13E00E94831482E380931901EA
:140B8A00A8952090390122FE0BC00E94A4100E9498370E94DC
:140B9E00B4160E94960F0E94B11110C00E94550EA02E002308
:140BB20019F40E94983708C0A8950A2D0E94E41582E3809362
:140BC6001901FFCF02E344DB0E94302E0E9474190E94C71186
:140BDA000E94C82E80913A018F770E94193680913C018F7ED1
:140BEE0080933C010E9412310E94513480913C018061809355
:140C02003C0182E3809319010BE424DB0E94182E0E94D53290
:140C16000E9416372224209258012092DF0120926E0180E077
:140C2A0080936601809367018093680180936901809138017E
:140C3E008D7F8093380180913A01877F80933A018091380160
:140C52008F7D809338010E94D92E0BE4FBDA8FEF8093130124
:140C66000E94ED330E9440312092780187E380931E010E943C
:140C7A000736209275019DC2A89580911E018F3F39F42224F4
:140C8E0023BE83B7816083BF8895A89520903B0123FEEEC0FF
:140CA2000E94ED337C9B01C0D0D5809176018F3F29F40E94EA
:140CB600182E22242092760120903B0124FE0AC00E94FF17E5
:140CCA000E94AA3680913B018F7E0E94DF32B8C020903B0123
:140CDE0022FE12C00E94FF170E94AA1480913B018B7F80938E
:140CF2003B0122242092190280913801826080933801A2C0C5
:140D060020903B0125FE0AC00E94FF170E94DA3280913B014D
:140D1A008F7D0E94DF3294C020903B0126FE03C00E945B32B0
:140D2E008DC00E94701C0E944C1D0E940A1E20903A0123FE55
:140D42007CC00E944F1F20903B0126FE03C00E945B327AC015
:140D56000E9405212090380121FE0AC0822D8D7F80933801E8
:140D6A0020903C0127FC02C00E94241820905801222009F081
:140D7E0065C020901C01222009F060C020903D0127FE16C02B
:140D920020903C0127FE12C04090D9015090DA012090D7017C
:140DA6003090D8013092DC012092DB015092DE014092DD0102
:140DBA000E942E370E94EB300E947B1210934E0200934D025D
:140DCE003093500220934F020E94EB300E9430201093DC01C9
:140DE2000093DB013093DE012093DD010E94883210934A0210
:140DF6000093490230934C0220934B020E94EB300E94551234
:140E0A000E947B1210934602009345023093480220934702D7
:140E1E000E94051C22242092160120903D0121FC0DC022FCF8
:140E32000BC08FEF8093160107C084E120907501821510F44C
:140E46000E94B31F2090380121FE3EC182E380931C018FEF0A
:140E5A00809316010E94EC362090390125FE07C08091F701B9
:140E6E00883819F400270E94B2250E94403128C1209038011E
:140E820021FC24C12090390125FECDC020905801222009F07C
:140E960070C08091F7018F7709F416C18091F7018F77809313
:140EAA005801682F8130F9F0823011F1833029F1843041F143
:140EBE00853009F42EC0873009F430C0883009F432C089307C
:140ED20009F435C08A3009F437C08C3009F439C08E3009F4FF
:140EE6003BC0803109F43DC041C00E945824A02EA2DCEAC03D
:140EFA000E94B224A02E9DDCE5C00E94F424A02E98DCE0C0E4
:140F0E0081E080932401082F0E947B1601E08FDCD7C00E9447
:140F2200A425A02E8ADCD2C00E94AB25A02E85DCCDC00027D7
:140F36000E94B225A02E7FDCC7C00E94D925A02E7ADCC2C038
:140F4A000E94F725A02E75DCBDC00E949226A02E70DCB8C04D
:140F5E000E94112AA02E6BDCB3C00E943D24A02E66DCAEC099
:140F7200002763DCABC0609158016330D1F06430E9F06530FA
:140F860001F1673019F1693031F16A3049F16B3009F42BC0B2
:140F9A006C3009F42DC06D3009F42FC06E3009F431C06F3009
:140FAE0009F433C037C00E94742BA02E40DC88C00E947C2B8C
:140FC200A02E3BDC83C00E94E92BA02E36DC7EC00E94FB2B57
:140FD600A02E31DC79C00E946F2CA02E2CDC74C00E94B22C2C
:140FEA00A02E27DC6FC00E94E22CA02E22DC6AC00E943A2D44
:140FFE00A02E1DDC65C00E94452DA02E18DC60C00E94012337
:14101200A02E13DC5BC00E94792DA02E0EDC56C000270BDCCE
:1410260053C020901C01222009F04EC020905801222019F138
:14103A00622D633049F06330D8F06B3051F06C3069F06E307D
:14104E0081F014C00E945725A02EF1DB39C00E942126A02EE1
:14106200ECDB34C00E949226A02EE7DB2FC00E94E223A02E71
:14107600E2DB2AC002E0DFDB27C08CE320901D01821520F454
:14108A0000270E94B2251EC020903B0127FC1AC08FE02090CC
:14109E001F01821598F46091B601613019F0623021F00EC048
:1410B20002E0C3DB0BC08CE320901F01821530F400270E941C
:1410C600B22502C002E0B7DBF5DA2090390125FC3EC0209081
:1410DA005801222009F039C07ED9A02EA092AF01003E99F1A6
:1410EE008091390180628093390180913C01826080933C01F4
:1411020089EF809313016A2D003AE9F080EA801718F06036F1
:1411160071F01DC0603C09F01AC081E88093F70101C0A895A6
:14112A005AD9602F003CD9F310C080E98093F70101C0A895A5
:14113E0050D9602F0036D9F306C087E08093580185E88093CA
:14115200F7011F9908C0809178018F3F39F400270E94B225EC
:1411660003C08EE680937801AADA0E94A21320903A0123FECB
:14117A0020C02090380121FE04C020903D0124FE18C08091BC
:14118E0021018F3FA1F420905801222081F47CDB442708C07E
:1411A20085EA92E00E946C3000810E94B92D43954B31B0F31A
:1411B60086EE8093210162CD08950150104081E090E08017A7
:1411CA009107C8F308954A935A93A80106C0A89508EE13E0C2
:1411DE00F0DF4150504040304507B9F75991499108950E949E
:1411F200F82E24978FEF9FEFAFE0B0E00E94CD302822392299
:141206004A225B220E946E310E94BC31289608950E94F72FF8
:14121A0079015801AA97F5012190319039A628A6A080B18046
:14122E00F701C190D190E080F1801701442455240E946E31F7
:141242000E9484370E94BC310E947F300E94B62F0E94783486
:141256001501442455240E94BC310E947F300E94B62F0E9484
:14126A00F2371601442455240E944C360E9484370C851D859B
:14127E002E853F850E947F300E94B62F0E94CC3315014424EE
:1412920055240C851D852E853F850E947F300E94B62F0C8BB6
:1412A6001D8B2E8B3F8B288439843FA22EA20E9451360E9424
:1412BA00CD300E94D7340E94A2373401882499240E94D730B4
:1412CE000E9451360E949B360E94D7340E94D730688E798E1D
:1412E2008A8E9B8E288C398C3DA22CA20E94A036120144249E
:1412F60055240E94A7370E94CD30120144245524688C798C5F
:14130A008A8C9B8C0E94D7300E949B361201442455240E94E0
:14131E00D7300E9451360E949D350E94D7340E94D7306C8EC7
:141332007D8E8E8E9F8E2C8C3D8C3BA22AA22C8C3D8C4E8CCE
:141346005F8C1201442455242C8E3D8E4E8E5F8E0E949D35F2
:14135A0012014C8C5D8C420C531C59A248A2AA2414C02A2C11
:14136E003324220C331C2101CE018096F101E80FF91F2080EF
:141382003180F2010CA81DA8E00DF11D31822082A3948A2DFC
:14139600843048F304E0AA960C94EE2F0E941C306C97ACA036
:1413AA00BDA0F80134960E94F9340E946E31F80136960E9498
:1413BE00F9340E940D314301662477240E94D7300E9408341E
:1413D200F801219031908F01442455240E9470360E94F93414
:1413E6000E94A2374301662477240E94D7300E94CF37F901C4
:1413FA00219031909F01442455240E944C360E94F9346C8409
:14140E007D848E849F844301662477240E94D730688A798A8D
:141422008A8A9B8A0E949D356C887D888E889F880E947A3087
:1414360010F000274BC0CC243FC00E949B360E949D370E94F6
:14144A00A7370E94AC370E94CD300E94D7340E94AC370E94B8
:14145E002E3851F40E94A036EF93E22DE1602E2EEF910E9407
:14147200663704C00E94A0360E9466370E94CD300E949D3739
:141486000E943F350E949D356C887D888E889F880E947A3046
:14149A0080F00E9489300E94CF3741E050E060E070E00E9448
:1414AE00CD30240E351E461E571E0E943F35C3948C2D8032F7
:1414C20008F4BDCF0E94CD30F5010E941C3301E06C960C9485
:1414D60023300E941230622F580124970E94F53584E0861759
:1414EA0008F464E04427552716C0FA01EA0DFB1D20803324F0
:1414FE004424552488E090E00E94BC318A930E94503038011A
:1415120049010E94D7300E9408314F5F5F4F262E3324421599
:14152600530528F30E94BC3124960C9417300E940230AA246C
:14153A00BB2484E0821708F424E0442755270FC0FA01E00F21
:14154E00F11F0E94E33715010E94BE330E94BE33280E391EF4
:1415620051014F5F5F4F222E33244215530560F385010C94F8
:1415760007300E94F82E0E940230A884B984442715C0242E93
:14158A003324220C331C0E94BE3380E190E0821993090E943C
:14159E00E1358A930E946030E42FFF27EA0DFB1D0083439531
:1415B200433048F301E00E940730249608950E94F82E0E94FC
:1415C600F72FA22E28970E94F53589E08A1510F4A82E05C0E9
:1415DA008A2D813010F4AA24A394CC2436C081E08C8380E0D6
:1415EE008D838E838F83EE240DC00E94CD304AE050E060E09E
:1416020070E00E947F300E9447360E947834E3948A2D8C19F3
:141616008150E81670F3EC2DFF270A881B88E00DF11D0E947D
:14162A00E3371C01442437FC4094552447FC50940E94E135AE
:14163E000E947F300E94B62F0E94DC300E94F7370E946E3101
:14165200C394CA1408F4C7CF0E94BC3128960E94EE2F2496F7
:141666000895AA92AA2408C0F80121908F01222011F000275D
:14167A0004C0A394A216B0F301E0A99008950E94F82E0E94E5
:14168E001C30AC84BD8444272BC061E070E0CC2407C00AE003
:1416A20010E09B010E94A62FB801C39484E0841BC816A8F3A5
:1416B6001B0144245524088519852A853B850E947F300E9496
:1416CA00302FF50101935F011B0144245524088519852A85EC
:1416DE003B850E947F300E94322F0E94F2374395453008F4D0
:1416F200D2CF01E00E942330249608950E94FB2F2497AA24C1
:141706002FC0CC2426C0EC2CFF24EE0CFF1CEE0CFF1C17018D
:14171A000E943D3460807180828093800E94E630A8F4F70176
:14172E00E00FF11F0E9496360E946E3117010E943D340E942C
:141742001C33F701E00FF11F0E94DC302482358246825782A1
:14175600C394822F8A198150C81608F4D4CFA394822F8150CD
:14176A00A81608F4CCCF24960C94E92F3A932A930E94FD2F4C
:14177E002885CC2406C015010E943D340E941C33C394AC2CAB
:141792000E94E636822F8150C81698F3F501E00FF11F0E9403
:1417A600CD300E941C330E94E62F229608950E941C30422FD6
:1417BA006801EF97A5970E94F535AA2412C02A2C33240E9435
:1417CE00BE333101F101EC0DFD1D0E949636CE010496F30114
:1417E200E80FF91F0E941C33A394A41660F3242F8E010C5F62
:1417F6001F4F82DF61E013C0CE010496E62FFF27EE0FFF1F3D
:14180A00EE0FFF1FE80FF91F0E9496360E940D310E94D730A9
:14181E000E9408316395842F8150681748F3842F8250282ECA
:141832003324442455240E94BC310E947F300E94302FEF9604
:14184600A5960C9423300E94023027970E94D92E002321F4ED
:14185A000E9407360027C1C023E002E412E037DE0E94063823
:14186E0084E090E00E9410388A930E9460300E9406380E94D7
:14188200073680E090E0A8E0B0E02B803C804D805E800E9479
:141896000B3829F00E9447380E940B3891F40E94443580912B
:1418AA0002018F5F282E2092020183E0821528F40E94F12E57
:1418BE0022242092020100278EC02224209202010E9447388A
:1418D2000E941038080F191F2A1F3B1F88DC10931F0200936B
:1418E6001E0230932102209320022090BC01222009F466C041
:1418FA0020903A0123FE18C08FE08A832883398398010DE18C
:14190E0013E032DF20903A0126FE05C00E942F320E94123501
:1419220025C02FE00DE113E044DF0E9424351EC00E942F32DD
:141936000E941235442716C0A42E0E94E6368DE193E0F5010C
:14194A00E80FF91F0E942F320E941C338DED92E0F501E80FAD
:14195E00F91F0E942F320E941C334395403140F320903A0102
:1419720023FE1AC089E08A8340901C0250901D0220901A0237
:1419860030901B024882598291010DED12E0F0DE20903A0194
:14199A0026FC06C029E00DED12E007DF0E9424358CE791E097
:1419AE009983888320911C0230911D0200911A0210911B02E4
:1419C200DADD0DC08CE791E0998388832091200230912102CB
:1419D60000911E0210911F02CCDD04D001E027960C94073098
:1419EA000E941230AE9723E00CEA11E070DD0E94303423E080
:1419FE000CE711E06ADD0E94CD3423E009EA11E064DD10933C
:141A1200E5010093E4013093E7012093E60144270E94E732F7
:141A26000E94C8340E947A3040F00E9489300E9481368B7FD4
:141A3A0080933A010BC00E94DC340E94A7330E9489300E9454
:141A4E008136846080933A010A851B852C853D85C8DB0E87C1
:141A62001F87288B398B662774C0442361F423E006EA11E0F2
:141A760030DD0E94683103EA11E02BDD0E9419321BC04130F5
:141A8A0061F423E000EA11E022DD0E9468310DE911E01DDDFA
:141A9E000E9419320DC0423059F423E00AE911E014DD0E9441
:141AB200683107E911E00FDD0E9419320E944C386E847F84B2
:141AC600888899880E94E63008F044C00E9489306E867F86D3
:141ADA00888A998A0E9400330E9471300E94D7300E949E338F
:141AEE00439561F423E006EA11E0EFDC0E94683103EA11E0EF
:141B0200EADC0E9419321BC0413061F423E000EA11E0E1DCE0
:141B16000E9468310DE911E0DCDC0E9419320DC0423059F468
:141B2A0023E00AE911E0D3DC0E94683107E911E0CEDC0E94A9
:141B3E0019320E9400330E94613411F0433010F04A9504C025
:141B52006395633008F489CF2E843F844888598812013F8E9A
:141B66002E8E2E843F8439A228A2442361F423E006EA11E0F5
:141B7A00AEDC0E94683103EA11E0A9DC0E9419321BC04130F6
:141B8E0061F423E000EA11E0A0DC0E9468310DE911E09BDCFB
:141BA2000E9419320DC0423059F423E00AE911E092DC0E94BF
:141BB600683107E911E08DDC0E9419320E94003312013B8E9A
:141BCA002A8E2E883F883D8E2C8ECE0182960E947A36025EB4
:141BDE001F4F1ADB0E944C3812013B8E2A8E2A883B883D8E96
:141BF2002C8ECE018A960E947A360E5D1F4FD0DB013009F036
:141C06002CC020903A0122FE1DC02AA43BA44CA45DA40E94B6
:141C1A0071300E947A3048F480913B018F7D80933B01806104
:141C2E0080933B0118C02AA43BA44CA45DA40E9471300E94F8
:141C420089300E949E330DC02AA43BA44CA45DA40E947130B4
:141C56000E94D7300E949E3302C00E94443501E0AE960C94BC
:141C6A001730AA92BA925801F999FECFB2BCA1BCF89A0CE294
:141C7E0011E09FDA00B5B990A99008950E94FD2FA22E68010D
:141C9200F999FECFD2BCC1BCA0BCFA9AF99A08EC10E08DDA06
:141CA6000C94E62F0E941C30EF97EF97689744271AC00E9495
:141CBA005638D7DFCE010E946C3000830E945B38D0DFCE018F
:141CCE00C2960E946C3000830E947536C8DFA02ECE018C5973
:141CE2009F4F0E946C30A0824395403320F344272EE28E0138
:141CF6000E945C353EA4321429F4209057013FA4321409F038
:141D0A0044E02EE28E010E5C1F4F0E945C35FE01E05AFF4F70
:141D1E003080321441F420905701FE01EF59FF4F30803214F3
:141D320009F042602EE28E010C591F4F0E945C35FE01EE561A
:141D4600FF4F3080321441F420905701FE01ED56FF4F3080C8
:141D5A00321409F04160477081F466270AC0CE01E62F0E948C
:141D6E00843085E592E0E62F0E94A23063956033A0F3002703
:141D8200A8C0473011F401E0A4C042FF78C0842F9927827046
:141D960090705C018030890709F421C066271CC0CE018C59A1
:141DAA009F4FE62F0E94843085E592E0E62F0E94A230CE0198
:141DBE008C599F4F0E9420310E940A375FDFCE018C599F4F88
:141DD2000E9420310E94103757DF6395603308F4E1CF642F21
:141DE6007727617070706030670709F425C0CC241FC0CE011C
:141DFA00C296EC2D0E94843085E592E0EC2D0E94A230CE01D6
:141E0E00C296EC2D0E94C1310C2D1127005F1F4F35DFCE019A
:141E2200C296EC2D0E94C1310C2D112700551F4F2BDFC39412
:141E36008C2D803308F4DDCFAA2009F047C0BB2009F044C0E2
:141E4A006030670709F040C0662712C0CE01C296E62F0E9450
:141E5E00843085E592E0E62F0E94A230CE01C2960E9420313D
:141E72000E940A3709DF6395603360F329C066270AC0CE01A4
:141E8600E62F0E94843085E592E0E62F0E94A23063956033ED
:141E9A00A0F341FF0BC0662707C0CE010E9420310E94103797
:141EAE00EDDE63956033B8F340FF0CC0442708C0CE010E9470
:141EC2006C3020810E947536DFDE43954033B0F30027EF962B
:141ED600EF9668960C9423300E9402305801EC9744270BC09C
:141EEA00242E33248501020D131DBBDECE010E946C3000834D
:141EFE004395403398F32EE28E010E947818442720905601B7
:141F12003EA4321429F4209057013FA4321409F041E0042FF8
:141F2600EC960C9407300E941230EC972090BA012882209022
:141F3A00B90129822090C0012A822090B8012B822090B70193
:141F4E002C822090BB012D822090BC012E822090B5012F8282
:141F62002090B60128862090B401298644270BC08CEA91E025
:141F76000E946C302080CE01E42FE65F0E94A2304395433093
:141F8A0098F344270BC089EA91E00E946C302080CE01E42FDE
:141F9E00E35F0E94A2304395433098F344270BC086EA91E08C
:141FB2000E946C302080CE01E42FE05F0E94A230439543305D
:141FC60098F344270BC083EA91E00E946C302080CE01E42FA8
:141FDA00ED5E0E94A2304395433098F344270BC080EA91E04D
:141FEE000E946C302080CE01E42FEA5E0E94A2304395433018
:1420020098F344270BC08DE991E00E946C302080CE01E42F62
:14201600E75E0E94A2304395433098F344270BC08AE991E00D
:14202A000E946C302080CE01E42FE45E0E94A23043954330E1
:14203E0098F344270BC087E991E00E946C302080CE01E42F2C
:14205200E15E0E94A2304395433098F3209096012AA2442773
:142066000BC083E991E00E946C302080CE01E42FED5D0E9412
:14207A00A2304395433098F3209092012EA244270BC08FE8EA
:14208E0091E00E946C302080CE01E42FE95D0E94A23043957B
:1420A200433098F30E94AC33232C33242AA60E94AC332BA6E3
:1420B6000E94E634232C33242CA60E94E6342DA62EE28E01B4
:1420CA000E945C352EA6209057012FA6A895A39A8091D401BE
:1420DE0080620E9401385ED3F894442721C0423038F400E5A5
:1420F200142F0103B001605A7F4F02C060E170E0AA2409C070
:14210600CE01EA2D0E94C1312A2C0E94BB36BADDA3948A2DDD
:14211A008033A0F38B01DEDEA02E8A2D813061F3A895439584
:14212E004330E8F278948091D4018F7D0E94013831D301E092
:14214200EC960C94173000270BC08BEC90E0E02F0E94BB30AB
:1421560085E592E0E02F0E94A23003950E3298F301E0089535
:14216A004A93F80121902092BA0121902092B90121902092ED
:14217E00C00121902092B80121902092B70121902092BB0136
:1421920021902092BC0121902092B50121902092B601219035
:1421A6008F012092B401442709C08CEA91E00E946C30D801FC
:1421BA002D908D01208243954330A8F3442709C089EA91E026
:1421CE000E946C30D8012D908D01208243954330A8F34427A8
:1421E20009C086EA91E00E946C30D8012D908D012082439563
:1421F6004330A8F3442709C083EA91E00E946C30D8012D90E1
:14220A008D01208243954330A8F3442709C080EA91E00E94F9
:14221E006C30D8012D908D01208243954330A8F3442709C030
:142232008DE991E00E946C30D8012D908D0120824395433062
:14224600A8F3442709C08AE991E00E946C30D8012D908D016F
:14225A00208243954330A8F3442709C087E991E00E946C3095
:14226E00D8012D908D01208243954330A8F3F80121908F0176
:1422820020929601442709C083E991E00E946C30D8012D901A
:142296008D01208243954330A8F3F80121908F01209292019F
:1422AA00442709C08FE891E00E946C30D8012D908D01208200
:1422BE0043954330A8F3F801219033240E943838219033240B
:1422D20040908D0150908E01542C4424420C531C50928E0115
:1422E60040928D01219033240E9429382190332440908B0115
:1422FA0050908C01542C4424420C531C50928C0140928B01F1
:14230E0001E0499108954A936A930E94FE362090390122FEA9
:1423220002C001E01AC0442713C00E9456389DDC0F3F59F4A8
:142336000E945B3898DC0F3F31F40E94753693DC602F0F3FDE
:14234A0011F001E006C04395403358F30E94F83601E0699196
:14235E00499108954A935A93F8944427552708C0222700E0C6
:1423720012E0040F151F88DC4F5F5F4F4638E1E05E07A0F327
:1423860078945991499108954A932A97F894442708C00E94D7
:14239A008F3667DCCE010E946C30008343954630B0F378949A
:1423AE0028802092360180E6821530F42224209236010E9498
:1423C20026330EC024E08E010E5F1F4F0E946C0A10932F0187
:1423D60000932E0130933101209330012A96499108954A9344
:1423EA002C97209036012A8222242B822C82CE010596998362
:1423FE0088830E9495330E94573709C0CE0102960E946C30B8
:1424120020810E948F3638DC43954630A8F378942C96499109
:1424260008953A932A930E941230A02E27970E9487340E940C
:14243A008A350D851E852F8538890E9457370AC0CE010296C4
:14244E000E946C302081242E0E94BB3617DC43954330A0F3E5
:14246200789427960E941730229608950E941230A02E2597F1
:142476000E948734F894442709C0242E0E94BB36F2DBCE01B4
:14248A000E946C30008343954330A8F3789423E08E010E9457
:14249E006C0A25960C9417308BD489C50E94753720903D0129
:1424B20027FE1AC0209058012220B1F40E94AB350E94A73329
:1424C6000E947A3058F01301240130920501209204015092D4
:1424DA0007014092060104C00E94AB350E9452350E94D133F8
:1424EE00B990A990249608950E9473352D972090B5012882E3
:142502000B891C892D893E890E94F31A09831A832B833C83CA
:1425160085E291E0E091BA010E94BB3033244424552409815E
:14252A001A812B813C810E947F300E947A370E9470377694A2
:14253E00679488249924260C371C481C591C2D823E824F8287
:14255200588620906B0330906C03442455240D811E812F818C
:1425660038850E947F300E94302F0D831E832F833887209000
:14257A00B501222021F0822D843009F058C089E391E0E09182
:14258E00B9010E94BB303324310122E030E0022D11270E944E
:1425A200FF2E18010E940D33262C3324442455240E947F3022
:1425B6000E948A3189E391E0E0916A030E94BB3033244424AD
:1425CA0055240E946C320E947F300E94B62F0E94A1318091E7
:1425DE00B501843009F07AC020906503222019F40E942531ED
:1425F20073C080916503823019F40E9425316CC080916503CD
:14260600843049F442E350E00E94B13144E650E00E945B316E
:14261A005FC080916503883009F05AC044EF51E00E94B13161
:14262E0048EE53E00E945B3151C08091B501823009F02BC093
:142642000E9405330E94283736942794442455240D811E8116
:142656002F813885020D131D241D351D1501442455240E9498
:14266A007F300E948A3189E391E0E0916A03FF27E80FF91F60
:14267E000E942837442455240E946C320E947F300E94B62F4E
:142692000E94A13121C00E940533A490BB242A2C332435947C
:1426A60027940E940D330E9460380E947F300E948A3189E32F
:1426BA0091E0E0916A030E94BB303324442455240E946C32B8
:1426CE000E947F300E94B62F0E94A1310E946C322D960E9407
:1426E20017302496089520903D0121FE17C022FE0FC0809162
:1426F600D40180648093D40180618093D40184608093D4019A
:14270A0081608093D40118C00E94EF3580610E94C33312C009
:14271E0020903D0122FE06C00E94EF358F7E0E94C33308C0A0
:142732008091D4018F7B8093D4018F7E0E94C33308952090C9
:142746003D0120FE11C08091D40180688093D40120903C01AF
:14275A0023FC12C0822D886080933C0184EF809313010AC02F
:14276E008091D4018F778093D40180913C01877F80933C01DF
:1427820020903D0127FE06C08091D40188608093D40105C0EF
:142796008091D401877F8093D401A3CF0E9402305801442751
:1427AA0009C081EC91E00E946C30D5012D905D0120824395CB
:1427BE004730A8F3442713C001E0142F0E945A30209017019F
:1427D200202251F084E0841B282E332481EC91E00E94E1342B
:1427E600805F80834395453058F32090BF012092BD01809174
:1427FA001A018F5F80931A0120903D0125FE05C08091C701E5
:14280E0082608093C70114E000911A010E948E2F033031F5A1
:14282200442712C001E0142F0E945A3020901601202249F0D3
:14283600E4E0E41BFF2781EC91E0E80FF91F80E1808343957C
:14284A00453060F3809116018F3F19F422242092BD01209049
:14285E003D0125FE05C08091C7018D7F8093C7011BDE0C94E7
:1428720007304A93402F433010F000271DC085E08093C1011E
:142886008CE18093C20181E08093C30183E18093C401809374
:14289A00C501423021F482E08093C30105C0442319F482E009
:1428AE008093C4010E94DA36F7DD01E0499108954A93402F14
:1428C20089E08093C101443061F441E007C081EC91E00E9493
:1428D6006C3083E1808343954530B8F30BC041E007C081ECD3
:1428EA0091E00E946C3082E1808343954530B8F30E94DA361B
:1428FE00D3DD01E0499108951F708DE08093CF0184E0809368
:14291200D001C801892F99278F7090708093D101C8019695C7
:1429260087959695879596958795969587958F70907080939A
:14293A00D201C8018F7090708093D30122242092160184E094
:14294E000E94623308958FE00E94A3348BE00E9440372224EF
:142962002092D3010E94D2308FE18093170108950E946936BE
:1429760086E08093D10188E08093D2018CE08093D30122241B
:14298A000E94D23087E08093170108958CE08093CF018AE0AD
:14299E000E94133685E08093D2018CE08093D30122240E94B4
:1429B200D23085E080931701089585E08093CF018CE00E948C
:1429C600563387E08093D2018EE08093D30122240E94D230E8
:1429DA0082E08093170108950E94B4368AE08093D1018DE077
:1429EE008093D20185E08093D3010E94D23089E1809317016A
:142A0200089587E08093CF018BE00E9456338DE08093D201F0
:142A16000093D30122240E94D23088E18093170108950E9488
:142A2A00693681E00E94403786E08093D30122240E94D23048
:142A3E0089E08093170108954A93222359F4442706C08FEC38
:142A520091E00E946C30008343954530C0F312C0213081F4A6
:142A660022242092CF0141E006C08FEC91E00E946C30008300
:142A7A0043954430C0F322242092D30122240E94D2308FE123
:142A8E008093170182E380931C01499108950E94922A222459
:142AA2000E94D23080E1809317010895AA92BA9258010E94D0
:142AB600B43624E630E085010E94162F0093D10124E60E948A
:142ACA00933758012AE030E00E94162F0093D2012AE00E94C2
:142ADE0093370093D3010E94303385E280931C01B990A99095
:142AF20008958FE00E945C3387E08093D1010093D2018FE072
:142B06008093D30122240E94D2308DE180931701089588E04C
:142B1A000E94A33484E08093D10122242092D2012090B501B4
:142B2E002092D30122240E94D2308EE18093170108952224A6
:142B42002092CF018FE00E9413368BE08093D2018FE08093D0
:142B5600D3010E94D2308DE180931701089522242092CF01F5
:142B6A008EE08093D00189E08093D1018DE00E9498350E9439
:142B7E00D23085E180931701089522242092CF012092D001C8
:142B92008FE08093D1010E9498350E94D23081E1809317013B
:142BA600089588E00E94A33485E00E94FB358BE08093D30114
:142BBA0022240E94D2308AE1809317010895AA92A02E8EE072
:142BCE008093CF018AE08093D0018093D1011AE00A2D0E940A
:142BE20082341AE00A2D0E947D3422240E94D2308CE080933C
:142BF6001701A9900895002706C08FEC0E94B53088E0808383
:142C0A0003950530C0F38FEF8093D4018093D50122242092EF
:142C1E0016018FE18093BF0120921701089522242092CF0119
:142C32008EE00E94563386E00E9498352092D4012092D50111
:142C46000E94D23087E1809317010895AA92A02E89E00E9491
:142C5A005C3314E60A2D0E94902F0093D10114E60A2D0E940D
:142C6E008E2F1AE00E94902F0093D2011AE00A2D0E948E2F44
:142C82000093D30122242092160188E00E946233A990089553
:142C960080E18093170122242092BF01002321F48EE080932D
:142CAA00CF0112C0013041F487E08093CF01209065032092FA
:142CBE00BF0108C0F90121909F012092CF012224209217019D
:142CD200F90121902092D00121902092D10121902092D20155
:142CE60021909F012092D30122242092160108958CE08093D8
:142CFA00CF0187E00E94563322242092D2010093D30181E0D1
:142D0E00809316012092BF018EE080931701089589E00E94D4
:142D22005C338CE08093D10187E08093D2018AE08093D3011F
:142D360022240E94D2308BE180931701089589E08093CF011F
:142D4A008BE00E9456338CE08093D2018093D30122240E94BE
:142D5E00D23088E180931701089581E00E94A33481E00E9451
:142D7200FB3522242092D3010E94D2308BE08093170108957A
:142D860081E38093E50083E58093E6008FEC8093E70080E89F
:142D9A008093E400089581E98093E4002090E40024FEFCCFAF
:142DAE0022242092E400089580E88093E400089527970027B7
:142DC2000FC081EC0E94B530E081FF2789EF90E0E80FF91FBC
:142DD6002490CE01E02F0E94A2300395053078F32090C60134
:142DEA002D822090C7012E8288810E94FB328D810E940D3534
:142DFE000E94673483700E945631880F880F382A30926403AF
:142E12008C810E94FB328B810E94083581708F708295382A7C
:142E2600309263038881869586950E94FB328D810E944B3433
:142E3A008981869586950E946734869586958370880F880FB0
:142E4E000E945631382A309262038C81869586950E94FB32AC
:142E62008B810E944B348E81869581708F708295382A3092DA
:142E76006103888182958F700E94FB328D8182958F700E9430
:142E8A000D3582958F700E94673482958F708370880F880F68
:142E9E000E945631382A309260038C8182958F700E94FB327E
:142EB2008B8182958F700E9408358695869581708F708295CE
:142EC600382A30925F0388810E94E130869586950E94FB32B1
:142EDA008D81869586950E94E1300E940D35869586950E9431
:142EEE00E1300E946734869586950E94E1308370880F880F78
:142F02000E945631382A30925E038C81869586950E94E13017
:142F16008170282E220C220C8B81869586950E94E1300E946D
:142F2A00083582958F708170880F880F880F382A8E818695FE
:142F3E008695869581708F708295382A30925D032090BD0150
:142F5200222051F480915E03877580935E03832D8D7F809333
:142F66005D0327C08091BD01823031F480915D038260809304
:142F7A005D031DC08091BD01843031F480915E0380688093F1
:142F8E005E0313C08091BD01883031F480915E0380628093E8
:142FA2005E0309C08091BD01803129F480915E0388608093E7
:142FB6005E0327960895209064032092EC00209063032092CF
:142FCA00ED00209062032092F100209061032092F2002090E6
:142FDE0060032092F60020905F032092F70020905E03209256
:142FF200FB0020905D032092FC0008952090390126FC20C089
:1430060000270BC08FEC91E0E02F0E94843088EC91E0E02F7F
:14301A000E94A2300395073098F32090160120927B0120902F
:14302E00BF012092BE0120901701209218018091390180649B
:143042008093390108952090390126FE20C000270BC088EC3C
:1430560091E0E02F0E9484308FEC91E0E02F0E94A230039589
:14306A00073098F320907B01209216012090BE012092BF01BA
:14307E002090180120921701809139018F7B8093390108956C
:143092000E940A30202E332440905401509055014224532471
:1430A600509255014092540144271BC06091540170915501D4
:1430BA00617070700E94CE36369427940E942438C1019F7750
:1430CE000E94D437613041F481E090EA0E94CE36282639264D
:1430E2000E9424384395483018F30C940D300E94FB2FE22EC8
:1430F60068018FEF9FEF0E94D437AA2405C0F60101916F0118
:14310A00C3DFA394AE14C8F30E94CE3620925601232C332406
:14311E00209257010C94E92F289723E003E90E9499310E941F
:1431320004370E9478340E94CD300E940D310E947A3048F0FD
:14314600130124010E9438320E94CD300E94413208C00E9412
:14315A00CD300E9438320E94DC300E94413222242092080194
:14316E0020909601222041F420909201222021F422242092FD
:14318200080185C080919601813041F480919201813021F4F3
:1431960081E08093080179C080919601823041F4809192013C
:1431AA00823021F482E0809308016DC020909601222061F4C1
:1431BE0080919201813041F481E0809308010E94CD300E94B5
:1431D20038325DC020909601222061F480919201823041F4F9
:1431E60082E0809308010E94CD300E9441324DC02090920153
:1431FA00222061F480919601813041F481E0809308010E947D
:14320E00DC300E9438323DC020909201222061F48091960115
:14322200823041F482E0809308010E94DC300E9441322DC083
:1432360080919601813099F480919201823079F40E94CD303C
:14324A000E940D310E947A3020F084E0809308011AC083E077
:14325E008093080116C080919601823091F480919201813036
:1432720071F40E94CD300E940D310E94E63020F084E0809325
:14328600080103C083E08093080101E0289608952090C0013C
:14329A00209265032090B90120926A038091B501813021F4F0
:1432AE00822D8F5F80936A0320906503222059F080916A03CE
:1432C200833038F0835080936A03822D8150809365038FE35D
:1432D60091E0E09165030E94BB302092650301E008950E94D3
:1432EA0012302C9789E191E0E091BA010E94BB303324442478
:1432FE005524309252022092510250925402409253020E9427
:143312005D360E947F300E9447361093520200935102309304
:1433260054022093530285E291E0E091BA010E94BB3033244D
:14333A00442455240E947F300E94302F5801150144245524FC
:14334E0040E25FEB62E070E00E947F308A019B010E94362FEE
:1433620010936C0300936B031501442455240E946E310E946A
:14337600DC30222733270E947F300E94B62F10938203009301
:14338A00810330938403209383030E94AF360AE510E00E9420
:14339E00A62F1801442455240E9483330E94D73070927A03CC
:1433B2006092790390927C0380927B0382E090E00E941231B1
:1433C6008A930E9460300E9476320E94F7373092760320929D
:1433DA007503509278034092770389E391E0E091B9010E9414
:1433EE00BB303324442455240E943F3585E291E0E091BA018E
:143402000E94BB303324442455240E947037882499240E949D
:14341600E1359A928A927A926A920E94B62F0E947F300E94C2
:14342A00302F109369030093680380E08093710380937203B3
:14343E00809373038093740380E080936D0380936E038093ED
:143452006F03809370030E943A370023D1F02AE030E00091CC
:14346600B80111270E94FB2E81E391E0F8010E94F4300E9460
:14347A0012310E947F300E94302F10937203009371033093C7
:14348E007403209373030E9434370023D1F02AE030E00091EE
:1434A200B80111270E94FF2E81E391E0F8010E94F4300E9420
:1434B60012310E947F300E94302F10936E0300936D03309393
:1434CA00700320936F030E94C7360E9470362090B7013324B0
:1434DE0044245524088519852A853B850E947F300E947A37BB
:1434F20056944794379427943092670320926603C9DE10DE9F
:1435060001E02C960C9417308091D501807E8093D501002336
:14351A0021F480618093D50122C0013031F48091D5018860B7
:14352E008093D5011AC0023031F48091D50182608093D501BD
:1435420012C0033049F48091D50181608093D501826080938D
:14355600D50107C0043029F48091D50184608093D501089522
:14356A000E94F82E66970E94003312013F822E822E883F88B2
:14357E00398628862A8C3B8C4C8C5D8C12013B822A822A8C5C
:143592003B8C3D822C820E9421339E012E5F3F4F8E010A5F49
:1435A6001F4F0E940B092E8C3F8C48A059A012013B822A820B
:1435BA002E8C3F8C3D822C82CE014296998388839E012E5F11
:1435CE003F4F8E01065F1F4F0E94D1090A891B892C893D89CB
:1435E2006A9608950E947335A0974AA50E94E63480E890E232
:1435F6008215930528F0C1018837EEE19E0730F48AEF9EE169
:14360A0090938C0180938B010E94AC3380E890E282159305D3
:14361E0028F0C1018837EEE19E0730F48AEF9EE190938E01BD
:1436320080938D0180E99FE5A1E0B0E00E94E6340E948836C9
:143646000E94703680E99FE5A1E0B0E00E94AC330E94883649
:14365A000E944C3620903C0124FE17C020903A0126FC13C072
:14366E002C843D844E845F840E943F35288439844A845B84F6
:143682000E946E310E9414326FDF0EA31FA328A739A72EA0CD
:143696003FA048A459A4288A398A4A8A5B8A413009F044C0BC
:1436AA0088E190E00E9414328A930E9460301D8B0C8B88E055
:1436BE0090E00E9414328A930E9460301F8B0E8B88E090E036
:1436D2000E9414328A930E945030198F088F222433243B8E18
:1436E6002A8E13E000916A030E948E2F023049F482E291E084
:1436FA009D8F8C8F85E99CE49F8F8E8F08C088EE90E09D8F62
:14370E008C8F84E49DE39F8F8E8FCE014096998388839E01EE
:14372200245E3F4F8E010C5E1F4F0E94D10952C0423019F013
:14373600433009F04DC0423059F484E68C8380E08D838E834D
:14374A000E94FB300DDF0E94CC3340C020906503222061F462
:14375E0088EE8C8383E08D8380E08E830E94FB30FDDE0E94A4
:14377200CC3330C080916503823061F488EE8C8383E08D83DC
:1437860080E08E830E94FB30EDDE0E94CC3320C0809165032C
:14379A00843061F480E18C8387E28D8380E08E830E94FB30EB
:1437AE00DDDE0E94CC3310C080916503883061F480EA8C83DC
:1437C20086E88D8381E08E8380E00E94FB30CCDE0E94CC338B
:1437D600042F9ADE088919892A893B89A0960E9417302496B1
:1437EA000895009165032090B501822D833011F0843029F49B
:1437FE00002311F404E001C008E008950E94F82E22978FEC69
:1438120091E00E947F320E94E7323092330120923201509266
:14382600350140923401DFDF0093BF01222420921701209080
:14383A00CF012220E9F40E94F2362090D0012220B9F403FD51
:14384E0015C08860809317012090D101222071F402FD0CC08A
:143862008460809317012090D201222029F401FD03C08260BE
:14387600809317010E94E7320E94613429F40E9445340E9447
:14388A00A63111C020903A0121FE0DC020905801222049F423
:14389E0020903D0127FC05C08FE08093CF010E94F23601E043
:1438B20026960895013021F40E948E300E941B352224209219
:1438C60073012092720180E080936A0180936B0180936C0178
:1438DA0080936D0108950E941230289720903A0123FE70C0DD
:1438EE0020903B0127FE6CC0409068015090690120906601EF
:14390200309067010E9471300E947A3028F00E9489300E94E5
:1439160008310EC00E948E30809068019090690160906601DC
:14392A00709067010E9489300E9408310E94C53708965C0152
:14393E000E9403350E9403350E94FE340E94DC300E947132FA
:1439520008F439C00E9460380E940D310E94E63008F431C0AD
:14396600809173018F5F809373010E948E3080906C01909056
:14397A006D0160906A0170906B010E94D73070926B016092FB
:14398E006A0190926D0180926C01809172018A3FC8F02090F6
:1439A2007301332444245524830194010E947F300E94302FFA
:1439B6000E9478340E94CD300E941B35002778DF05C001E0FA
:1439CA0075DF02C001E072DF28960C94173022242092710192
:1439DE002092700180E08093620180936301809364018093DA
:1439F200650108954A93442720903A0123FE2EC026FC2CC06E
:143A0600809100018F5F8093000120903D0120FE23C02090F9
:143A1A003B0127FE19C02090370122FE0FC041E02090BC01F9
:143A2E00222021F08A30A0F401E02DC080910001853070F4EA
:143A420001E027C080910001853040F401E021C080910001D9
:143A5600853010F401E01BC0442329F480913D018E7F8093F4
:143A6A003D010E948E3030925F0120925E0150926101409261
:143A7E006001222420921F01809139018F7780933901A3DF9B
:143A920001E0499108950E94123024970E9475330E9471309C
:143AA6000E947A3028F00E9489300E9408310EC00E948E3044
:143ABA00809060019090610160905E0170905F010E948930FB
:143ACE000E9408310E94AF3605E00E9421360E940D310E9422
:143AE2007A3030F0809137018B7F8093370105C0809137015A
:143AF6008460809337010E94FE340E94DC300E94713208F4CA
:143B0A007FC00E94C53701965C01B694A7941501442455245A
:143B1E000E940D310E947A3018F00E94FE3602C00E94F836F7
:143B32002090370123FE66C0222420926F01809171018F5F77
:143B4600809371010E948E3080906401909065016090620138
:143B5A00709063010E94D73070926301609262019092650107
:143B6E008092640182E3A82E2090BC01222051F420903D01AF
:143B820027FE06C020903A0123FE02C08FE0A82E2090700110
:143B96002A1438F180913D01816080933D0180913801806207
:143BAA0080933801209071013324442455242091640130918A
:143BBE00650100916201109163010E947F300E94302F10939F
:143BD2005F0100935E0130936101209360012224209200015B
:143BE600F8DE20903D0120FE0EC00E9475333092E501209277
:143BFA00E4015092E7014092E60103C0F7DE01C0F5DE01E042
:143C0E0024960C9417300E941230289749E150E060E070E074
:143C22000E9412310E94AC310E94302F109347010093460164
:143C360030934901209348010E94C6310E9471300E947A3049
:143C4A0028F00E9489300E9408310EC00E948E308090E201F7
:143C5E009090E3016090E0017090E1010E9489300E94083165
:143C72000E94BD350E940D310E947A3040F00E94C6310E9413
:143C860071300E947A3008F050C00E94CF310E9471300E94AE
:143C9A007A3038F00E9489300E9408340E94223712C00E949C
:143CAE008E30809050019090510160904E0170904F010E9440
:143CC20089300E9408340E941C370E94A6310E94FE340E9473
:143CD600CD300E94713228F12090660330906703442455245B
:143CEA000E94D2340E94E630D0F00E94A63120903A0123FE21
:143CFE0010C020903D0120FE17C080916E01843698F00E949B
:143D120075330E94D831222420926E010BC0222420926E01B1
:143D260007C0222420926E0103C0222420926E0128960C94D3
:143D3A00173080913B01806480933B0180680E9452378061BA
:143D4E0080933D0108950E9475370E94AF3604E10E942136C0
:143D62000E94A7330E947A3028F080913B01806880933B01E9
:143D7600B990A990249608950E94733580916803909169030D
:143D8A0002965C010E9403350E94FE340E94DC340E942E38C8
:143D9E00A0F40E94C7360E94C8340E947A3068F40E94A6311F
:143DB2001501442455240E947A3028F480913D018064809358
:143DC6003D010E94173024960895AA92BA920E94CF310E949F
:143DDA0071300E947A3038F00E9422370E9489300E946A3529
:143DEE0012C00E941C370E948E3080905001909051016090D7
:143E02004E0170904F010E9489300E946A350E94A631B990AF
:143E1600A9900895AA92BA922497D7DF20903A0120FE04C0FC
:143E2A000E94EB30A7DF32C020903A0126FE0BC00E94EB30B8
:143E3E008ADF20903B0127FC27C00E94EB3098DF23C00E9458
:143E5200EB3060D10E94B4350E946E310E94DC308090DD01A8
:143E66009090DE016090DB017090DC010E94E63058F083011C
:143E7A0094016BDF20903B0127FC08C00E94EB3079DF04C0A5
:143E8E0056DF2224209212012496B990A9900895AA92BA927F
:143EA200289780913B018F7B80933B018F770E9452378F7B6C
:143EB60080933D018F7E80933D0120903A0126FE02C0A8DFF1
:143ECA0028C023E009EA0E9499310E94DC300E9471300E9407
:143EDE007A30E0F00E9489300E9408340E94E13513D14090B1
:143EF20077035090780320907503309076030E94D2340E943C
:143F0600E63010F087DF07C060DF15DF81E08093120101C0E9
:143F1A007FDF20903B0126FE1DC020903D0127FE19C02090AC
:143F2E0058012220A9F44090DD015090DE012090DB0130908E
:143F4200DC013092D8012092D7015092DA014092D9018091EF
:143F56003C01806880933C012896B990A9900895AA92BA927D
:143F6A00289780913A018F7E80933A0123E009EA0E9499317B
:143F7E000E94DC300E9471300E947A30E0F00E9489300E9425
:143F92000834409073035090740320907103309072030E9447
:143FA600D2340E947A3040F080913A01806180933A010E9468
:143FBA00DA3208C00E94F63305C00E94F633222420921601B5
:143FCE008DE22090DF01821508F03FC080913A01886080930B
:143FE2003A0180913B018F7780933B010E9440318091390190
:143FF6008F7E80933901222420926E0120903A0124FE15C014
:14400A000E94DC3080907303909074036090710370907203FE
:14401E000E94D7307092E1016092E0019092E3018092E20133
:1440320004C00E948E300E94D6330E94C6310E94D8313092A5
:14404600D6022092D5025092D8024092D7020E9477032896C4
:14405A00B990A99008950E94F82E20903D0125FE44C02090A6
:14406E003A0120FE16C040904C0150904D0120904A01309009
:144082004B010E940D310E94D7300E94083180913A0182604C
:1440960080933A010E94A63137C040904C0150904D0120905D
:1440AA004A0130904B010E940D310E947A3038F00E948930FC
:1440BE000E9408310E94453423C00E94DC3080904C019090EA
:1440D2004D0160904A0170904B010E9489300E9408318091BE
:1440E6003A01826080933A010E94A6310DC020903A0120FE0C
:1440FA0007C0822D826080933A010E94A63102C00E944534B6
:14410E000E94BC31249608950E947335409053025090540212
:144122000E94D9370E9412310E947F300E94302F0E94DC34EE
:144136000E94FC37810192010E94302F0E94CD3466274427EF
:14414A0040900B0150900C012090090130900A010E94C83475
:14415E000E947A3008F061E040900F015090100120900D0139
:1441720030900E010E94C8340E94E63008F041E02224209203
:14418600110120900801222021F422242092110133C08091F5
:14419A000801813031F4662321F081E08093110129C0809118
:1441AE000801823031F4442321F082E0809311011FC080912E
:1441C2000801843041F4662311F4442321F084E08093110168
:1441D60013C080910801833079F4662311F4442319F041E0A9
:1441EA0050E002C0442755274030450719F483E08093110197
:1441FE00009111010E9417302496089520901101822D8130A8
:1442120031F0823021F0843011F08330D1F484E620907901F3
:14422600821518F4222420927901809179018B3418F404E62F
:14423A000E940A0284E620907401821530F48EEF80931301D4
:14424E0022242092740101E008950E94FF1721E003E00E9433
:14426200231501E008950E94FF1721E002E00E94231501E03C
:1442760008956A970E9401360E9430340E94B1373B862A86BC
:14428A000E947E333D862C860E94E7320E94A2350E960E94DE
:14429E00E633065F1F4F0E940B0920905302309054023F828E
:1442B2002E820E94D93739862886CE0146960E94E633025F62
:1442C6001F4F0E94D1090E891F89288D398D6A960895AA9267
:1442DA00BA92229780915301813039F486EA0E94EF3183EAE9
:1442EE000E94E13115C080915301823039F480EA0E94EF31C3
:144302008DE90E94E1310AC080915301833031F48AE90E9461
:14431600EF3187E90E94E1314090EA015090EB012090E8012F
:14432A003090E9010E948C330E94D7307092F1016092F001F4
:14433E009092F3018092F2010E94F6330E9492342296B9901C
:14435200A99008950E941C30A29720905301222009F02FC02C
:144366000E947632569447943794279430923F0120923E01BB
:14437A0050924101409240010E9471300E94E63010F465DFB5
:14438E0017C0AA240BC08CE791E0EA2D0E9484308CEA91E073
:1443A200EA2D0E94A230A3948A2D833090F30E94F633222447
:1443B600209216010E949234AA24A3941BC159DF0E943034A3
:1443CA000E94B4352E823F82488659860E94DC340E94A73308
:1443DE000E94E63018F439DF01E009C10E94C6350E94A7332B
:1443F2000E9489307092E9016092E8019092EB018092EA018A
:144406000E94A7330E947A3038F00E94BD350E948F350E9416
:14441A007A3018F424DF01E0ECC023E00CE711E00E946C0A49
:14442E001093ED010093EC013093EF012093EE012090530110
:1444420020925201CC2434C080915201813029F423E00CEA52
:144456000E94353411C080915201823029F423E006EA0E94AE
:14446A00353408C080915201833021F423E000EA0E943534E9
:14447E000E9423340E947A3018F4EFDE01E0B7C00E942334BB
:144492000E9489307092ED016092EC019092EF018092EE01D9
:1444A60080915201815080935201C39420905301C21408F43A
:1444BA00C7CFC22C822D813009F038C00E94B1373B8A2A8A16
:1444CE000E947E333D8A2C8A2090EE013090EF013F862E8642
:1444E2002090EC013090ED01398A288ACE014A960E94DF33A3
:1444F6000E5E1F4F0E940B092090EA013090EB013F862E8662
:14450A002090E8013090E9010E94933269F44FE65DE366E0DB
:14451E0070E00E9400330E94713210F496DE64C0D4DE62C0AF
:1445320092DE60C02090A30133243B8A2A8A2090A401332415
:144546003D8A2C8A2090A5014C885D88342C3D8A2C8A209048
:14455A00EE013090EF013F862E862090EC013090ED01398A27
:14456E00288ACE014A960E94DF330E5E1F4F0E940B092090E4
:14458200A60133243F862E862090A7013324398A288A2090DA
:14459600A80148885988342C0E94933209F027C00E946833D3
:1445AA000E947A3088F480913A01846080933A01130124017E
:1445BE000E948F350E9489300E941E3290F44DDE01E015C0D1
:1445D20080913A018B7F80933A010E9468330E9489300E94F7
:1445E6001E3218F436DE01E006C073DE01C031DEAA24A39484
:1445FA000A2DA2960C942330AA924A932090390126FE04C060
:14460E000E94241841E03EC020903A0127FE03C099D0402FF0
:1446220037C02090390123FE06C00E94A5360E94112A402FF3
:144636002DC08091F701873889F420903D0120FE04C086DE0A
:14464A00A02E4A2D21C00E94FF170E94D41582E380931C015E
:14465E0041E018C08091F701883851F417D020905301222014
:1446720009F044D060D0A02E4A2D0AC00E94B22A0E94973001
:144686002224209217010E946B3741E0042F4991A9900895C8
:14469A00809153018230D1F4002715C087E90E94B5302224F7
:1446AE0020828AE90E94B5308FEF80838DE991E0E02F0E9443
:1446C200A23080EA0E94B5308FEF80830395033048F313C0C7
:1446D60080915301833079F400270BC087E90E94B53022241C
:1446EA0020828AE90E94B5308FEF80830395033098F30895AC
:1446FE00AA92BA92229789EA91E09983888320915001309199
:14471200510100914E0110914F010E94BC0A0E94CF310E94C4
:14472600D63301E010E020E030E02296B990A99008950E941C
:14473A00AC330E9429380E94960F0E94293689E180931C01A7
:14474E00002708954A93249780913A018F7780933A0180914A
:144762005301843020F0CADFE6DF402F26C00E94C6350E9429
:1447760083330E9489300E9408310E9476320E948C330E94F6
:14478A00E63038F00E94E6350E940D310E947A3048F47EDF5B
:14479E0020905301222009F0ABDFC7DF402F07C0009153017D
:1447B2000E9402150E94723441E0042F2496499108954A9390
:1447C6006A9320903A0127FE0CC0C0DF602F013011F443E07F
:1447DA0009C0662311F444E005C044E003C00E94241843E0A3
:1447EE00042F6991499108952090BA012092FC012090B9018F
:144802002092FD012090C0012092FE010E9434370093FF0130
:144816000E943A37009300022090B701209201022090BB015D
:14482A00209202022090BC01209203022090B5012092040282
:14483E002090B60120920502209096012092070223E003E955
:1448520011E00E946C0A0E942D352090920120920A020E94A2
:1448660004370E9436350E94AC33309282012092810108955F
:14487A0020903D0127FE07C0822D8F7780933D010E942E3743
:14488E0005C080913D01806880933D0180E08093040180933E
:1448A2000501809306018093070100270895AA92BA922897BC
:1448B6002090380123FE2BC020903D0120FE27C00E94C6316D
:1448CA000E9471300E9489300E9408340E9471300E947A30CF
:1448DE0050F00E94CF350E94D2340E947A3018F00E94DA3236
:1448F20033C00E948E300E94D8310E94CF310E94D633809156
:144906003D018F7D80933D010E940A3223C020903D0125FC32
:14491A001FC020FE1DC00E94C6310E9471300E9489300E94D6
:14492E0008310E9471300E947A3050F00E94CF350E940D31E7
:144942000E947A3018F00E94DA3206C00E948E300E94D8318E
:144956000E940A3200272896B990A9900895AA92BA92249728
:14496A0020903D0125FE07C0822D8F7D80933D010E940A3277
:14497E002FC0409047025090480220904502309046020E9452
:14499200613439F40E948E300E94D8310E940A321DC02090D9
:1449A6003A0121FE03C00E94AA3616C00E94CF310E947130A3
:1449BA000E9489300E9408310E94DC300E9483330E947A3061
:1449CE0018F40E94DA3204C00E94DC300E943A3300272496B9
:1449E200B990A99008950E940A30269720903D0120FC02C03D
:1449F600002757C08BE480931C012090390121FE05C00DE015
:144A0A000E94E41500274BC020903B0127FC05C00AE00E946B
:144A1E00E415002742C080E620903601821528F40BE00E94D5
:144A3200E415002738C00E94D8350E9481350E94D7306A82BC
:144A46007B828C829D824FEF50EE65EF75E00E94E7320E94B0
:144A5A00713228F40CE00E94E415002720C00E94E73230927E
:144A6E002F0120922E015092310140923001809136018F5FD6
:144A8200809336010E94D835488259829101082F0E941412F1
:144A9600809139018260809339010E94F6330E94C037269672
:144AAA000C940D304A93609780910301863010F0002742C053
:144ABE0013E0009103010E948E2F402F002329F40091360186
:144AD2000E9429162CC080E197E2A0E0B0E00E9495330E940D
:144AE60040360E94303480E197E2A0E0B0E00E9495330E944A
:144AFA0039360E94CD34413059F4CE010A960E947F329E0177
:144B0E00255F3F4F00270E944B160BC00E9421330E811F8167
:144B2200288539850E949D3401E00E944B16809103018F5FBA
:144B3600809303018BE480931C0101E0609649910895809156
:144B4A003D01886080933D0101E008950E941415222420929F
:144B5E00160101E00895AA92A02EAA2091F484EF80931301BB
:144B7200222420926B002DBA209269000E94D5320E94163732
:144B86000E94F4110BE40E942B010E94C41582E380931901AA
:144B9A008C980BE40E942B010E94D016F89401C0769AFECF74
:144BAE00A99008950E940A308CE080935901442709C0642FA1
:144BC2006F5F89E591E00E94203122242082462F4430A8F3D3
:144BD6000E944E150E9462360E94973004E60E94871A01E015
:144BEA000C940D302090380123FE03C00E944C370FC00E9477
:144BFE0088320E94051C002319F40E946D3406C09AD40E94DD
:144C1200AE320E94973001E0089520903601222029F40E94DF
:144C2600A2160E94DE3709C00E948E370E944A3200913601F5
:144C3A000E944B3101E00895609780910301853018F02224BB
:144C4E002092030120900301222029F400912D010E942916E9
:144C620055C080910301813099F40E94213320912B01309142
:144C76002C010091290110912A010E94440B9E01265F3F4FD3
:144C8A0002E00E944B163EC0809103018230E1F480E197E2BD
:144C9E00A0E0B0E020912701309128010091250110912601B0
:144CB2000E9440360E94CD340E9421330E811F8128853985A3
:144CC6000E949D3400270E944B161EC0809103018330D1F4D2
:144CDA0080E197E2A0E0B0E020912701309128010091250162
:144CEE00109126010E9439360E943034CE010A960E947F3211
:144D02009E01255F3F4F01E00E944B16809103018F5F8093F2
:144D160003018BE480931C0101E0609608950E94D5320E9427
:144D2A00571501E0089500270BC0202E0E94C0300E940D36D4
:144D3E008FEC91E0E02F0E94A2300395033098F3202E0F5FE0
:144D52000E94C0300E940D362092F801202E0F5F0E94C030DD
:144D6600E80FF91F24902092BF01202F0F5F222E0E94C03065
:144D7A00E80FF91F249020921601202F0F5F222E0E94C030FA
:144D8E00E80FF91F24902092F901202F2F5F202E0E94C030E5
:144DA200E80FF91F24902092FA01089522972090FC012092D8
:144DB600BA012090FD012092B9012090FE012092C001209042
:144DCA00FF018AE0829D100140900002240C2092B80120901E
:144DDE0001022092B701209002022092BB01209003022092CB
:144DF200BC01209004022092B501209005022092B601209002
:144E060007022092960183E991E09983888320918901309146
:144E1A008A0100918701109188010E94BC0A20900A022092E0
:144E2E0092018FE891E09983888320918501309186010091BE
:144E42008301109184010E94BC0A0E947F370E943838229628
:144E560008954A938091FB01813121F489E08093CF0116C0D8
:144E6A002090FB01822D8C3089F08F3079F044270BC0242EF4
:144E7E000E94C0300E940D368FEC91E00E946C302082439505
:144E9200433098F30E941B310E9484303090FA01321420F4B5
:144EA6000E94AF30232C20820E941B310E9484303090F90188
:144EBA00231420F40E94AF30232C208204E60E94871A20904A
:144ECE00FB012220E9F48CEF91E0E22DFF27E80FF91FE08124
:144EE200FF2789E191E0E80FF91F04911AE00E9482340E9423
:144EF600A730E081FF2789E191E0E80FF91F04911AE00E942F
:144F0A007D34A6C08091FB018130C9F40E94A730E081FF2701
:144F1E0089E391E0E80FF91F04911AE00E9482340E94A73033
:144F3200E081FF2789E391E0E80FF91F04911AE00E947D3416
:144F460089C02090FB01822D833011F0853061F40E941B3107
:144F5A000E9484300E941538EF5F0E9484302092D30176C09E
:144F6E004091FB01443011F0463061F40E941B31E1500E9461
:144F820084300E9415380E9484302092D30164C04091FB01AB
:144F96004A3021F04D3011F0403131F422242092D2012092EB
:144FAA00D30156C04091FB014B3019F04E3009F034C00E94AB
:144FBE001B310E948430222071F422242092D1018FE080934A
:144FD200D2018093D3018091F801887F8093F8013BC00E9457
:144FE600A7308081813061F422242092D1018EE08093D201BB
:144FFA0081E08093D3010E94D3362AC00E94A730808182309A
:14500E0009F024C022242092D10187E00E9498350E94D33666
:145022001BC04091FB014C3021F04F3011F0413109F412C084
:145036000E94A73000811AE00E9482340E94A73000811AE026
:14504A000E947D348091FB01883011F40E94871A8091F801E8
:14505E008F7180931701499108950E941230289789E191E01E
:14507200E091FC010E94BB303324442455240E946E310E9414
:14508600DC300E945D360E947F300E9447360E9478340E9475
:14509A00CD308090890190908A0160908701709088010E941D
:1450AE00E63068F0809085019090860160908301709084014A
:1450C2000E94E63010F003E02AC00E94CD30809089019090FC
:1450D6008A0160908701709088010E94E63068F48090850190
:1450EA009090860160908301709084010E94E63010F400272F
:1450FE0010C00E94CD308090890190908A0160908701709072
:1451120088010E94E63010F401E001C002E028960C9417301B
:1451260080E890E20E947F378215930510F404E00BC0809150
:14513A008101909182018837EEE19E0710F405E001C0002737
:14514E0008950E941C30602F26974FEF613009F0F2C0A090CC
:14516200F7018A2D813809F47FC0823809F42FC0833809F437
:14517600DBC0843809F4A6C0873809F0E3C0D0DFC02E002350
:14518A0041F00E9446370E945F140E94EC3201E040C165DFC6
:14519E00C02E033051F404DE0E94960F0E9474190E9429363E
:1451B2000E94DE3732C10E9446370C2D0E943A140E94EC3237
:1451C60082E38093190101E026C18091FB018F5FA82EA09278
:1451DA00FB0181E18A1518F422242092FB01A3DD0E94F4347A
:1451EE0011F08F3089F584E08093F60185E08093F501809182
:14520200FB018C3059F44090890150908A01209087013090D6
:1452160088010E9452350AC040908501509086012090830117
:14522A00309084010E94523589E591E00E947F328091FE01C0
:14523E00833021F488E08093BF010EC02090FE01220C2092FC
:14525200BF0108C08091FB01813121F40E9462360E940D34CF
:14526600442770C00E941B310E9484303090FA01231430F043
:14527A000E94AF302090F901208209C08CEF91E0A090FB0172
:14528E00BB240E94A9348F5F80830E94F43421F08F3011F022
:1452A200813181F42090F6010E9491318081893028F00E9452
:1452B60091312224208204C00E94FD318F5F808341E040C094
:1452CA000E941B310E9484303090F901321430F00E94AF30EB
:1452DE002090FA01208209C08CEF91E0A090FB01BB240E940D
:1452F200A934815080830E94F43421F08F3011F0813191F425
:145306002090F6010E9491312080222039F40E94B932E80FF5
:14531A00F91F89E0808304C00E94FD318150808342E00EC0A3
:14532E000E94F43421F08F3011F0813139F40E94483342E0B2
:1453420003C0662309F4442782E0841708F464C08091FB0179
:145356008131D1F424E00AE511E00E94E00A109382010093A3
:14536A0081018FE097E28017910740F480E890E290938201E2
:14537E00809381010E940D34CED00E94973045C08091FB018A
:145392008C30F9F40E9401360E942D358FE996E8A1E0B0E07A
:1453A60080179107A207B30770F48FE98093870186E8809369
:1453BA00880181E08093890180E080938A010E945634ABD0B3
:1453CE000E94973022C08091FB018F30F1F40E9401360E9454
:1453E20036358FE996E8A1E0B0E080179107A207B30770F44F
:1453F6008FE98093830186E88093840181E08093850180E034
:14540A00809386010E94563488D00E9497301FDD01E026966E
:14541E000C9423300E941230249720905301222059F5809143
:145432003A0180640E94193645E050E060E070E00E9412318C
:145446000E94AC310AD510934301009342013093450120937B
:14545A0044010E94CB142090B501222029F022242092B50109
:14546E000E944B1980E08093F0018093F1018093F2018093A2
:14548200F30135C080915301813029F423E003EA0E9499319E
:1454960011C080915301823029F423E00DE90E94993108C0D0
:1454AA0080915301833021F423E007E90E9499310E94DC30B4
:1454BE000E94613421F40E94E6350E946E310E94DC300E9440
:1454D2008C330E94D7300E9408310E94BC310E9451342FD0CE
:1454E6000E94AE3280E18093160101E024969CC50E94AE3425
:1454FA008C32E1E09E0718F40E94EB3401C0D8D20E94563614
:14550E0084E0809316018093BF0105D088E18093170101E0DE
:14552200089500270BC089E591E0E02F0E9484308FEC91E0B6
:14553600E02F0E94A2300395053098F3089500270BC08FEC7C
:14554A0091E0E02F0E94843089E591E0E02F0E94A23003957D
:14555E00053098F30895AA92BA928091F701823819F40E94E2
:14557200483346C08091F701833879F48091F6018F5F382E17
:145586003092F6012090F501821508F437C022242092F60139
:14559A0033C08091F7018138C9F42090F6010E94913180817F
:1455AE00893028F00E9491312224208223C02090F60184E0DE
:1455C2008219282E332489E591E00E94E1348F5F808316C030
:1455D6008091F701843891F42090F6010E949131208022208A
:1455EA0039F40E94B932E80FF91F89E0808304C00E94FD31E4
:1455FE008150808390DF01E0B990A99008950BD5249723E0B8
:145612000BE50E9433389A0136952795369527953695279557
:14562600369527952F7030700AE010E08CD418019A01232F6A
:14563A0033272F70307004E610E083D42801420C531CCA01E1
:14564E008F709070A201480F591F6091F701673809F03AC05C
:145662004034E1E05E0718F40E94AA3630C004E610E09A01A7
:145676006AD41801442455240E946E318AE090E00E94BC313E
:14568A008A9309D50E94C0360E947F30E4D30E945C374424D4
:14569E0055240E947F30DDD3580184E690E08017910718F410
:1456B2000E94DA320CC0A092B4018A2D8A3018F48AE0809389
:1456C600B4010E94960F0E94F6330E94CA3707C046DF84E016
:1456DA000E9462330E94973001E02496A3C48091F701873852
:1456EE0011F4002701C001E0089585D426978091F701843862
:1457020029F40E948F160E946D3460C08091F701873809F00B
:1457160038C00E941F38F8F020903601222019F40E94263375
:14572A001DC0009136010E944B310E948135601A710A820ACF
:14573E00930A70922F0160922E0190923101809230018091BF
:14575200360181508093360105C02224209236010E94263302
:14576600442706C0CE010E946C3088E0808343954530C0F386
:14577A009E0102E00E944B160E946D3423C08091F7018238AE
:14578E0069F40E941F3820F082E08093240103C081E08093D0
:1457A20024010E94E83711C08091F701813869F480912401E7
:1457B600823020F081E08093240103C082E0809324010E9485
:1457CA00E83701E026961EC48091F701883821F400270E9486
:1457DE00B22508C08091F701853821F40E94EC36002701C091
:1457F20001E008954A935A934091F701413881F04238E9F055
:14580600433809F434C0453809F440C0463809F434C04738BA
:14581A0009F05CC000275BC00E9445342091500130915101F3
:14582E0000914E0110914F010E9451340E946D344CC020906F
:14584200380123FE03C00E944C3745C00E9488320E94051CEC
:14585600002319F40E946D343CC071DE8AE0809358010E9408
:14586A00AE320E94973001E032C08BE0809358010E940E2661
:14587E002CC08CE0809358010E94D5320E94571501E023C0D7
:145892004091B5014F5F4093B50184E0841718F42224209241
:1458A600B50120903C0121FC0AC00E948C158AE080931C0187
:1458BA000091B5010E94871A03C0222420921C010E94960F31
:1458CE000E944B19002701C001E05991499108954A935A93CC
:1458E2008091F701873809F02FC024E000ED0E9433380838C4
:1458F600E8E81E0741F40E94B9148DE0809358010E947234E4
:14590A001DC04131E1E15E0759F40E94DE148EE08093580158
:14591E002224209253010E9472340EC04835E6E55E0741F431
:145932000E94F1148FE0809358010E94723402C000270CC0E2
:1459460001E00AC00CDE22242092BF0180E1809317010E94D2
:14595A00973001E059914991089524978091F701873801F5B7
:14596E0025E009E511E00E94340B013011F4002720C00E9481
:145982003C21088319832A833B830E9476320E940D310E9456
:145996007A3018F00E94DA3204C00E94DC300E943A330E947A
:1459AA00CA3709C0DADD0E946B372224209217010E949730AB
:1459BE0001E0249608958091F701873811F4002751C0809187
:1459D200F701823829F52090360130902D01321468F081E01D
:1459E60080932D0180E080932501809326018093270180934B
:1459FA00280105C080912D018F5F80932D0100912D010E94DC
:145A0E004B310E947835600E711E821E931E0E94613526C04D
:145A22008091F701813809F021C080912D01815080932D0183
:145A3600882341F40E948E37022D0E944B310E944A3212C0D8
:145A4A0040902B0150902C012090290130902A010E9478352B
:145A5E000E9489300E94613500912D010E944B310E94C0372B
:145A720008958091F701873829F4222420921C01002701C0A1
:145A860001E008954A932090390123FE0DC00E94A5360E94BA
:145A9A00FB2322242092FB010E9498260E942C2741E003C0AD
:145AAE0001E04FDB402F042F4991089524E630E00E94D532FD
:145AC200B4D100935B0124E630E00E94D532ABD12AE030E003
:145AD600AAD100935C0124E630E00E94D532A1D12AE030E002
:145AEA009ED100935D0108954A932090390123FE13C00E944E
:145AFE00A5360E94AE348436E0E09E0718F40E94EB3401C088
:145B1200D3DF0E9456360E94303303DD41E002C074DD402F17
:145B26008FEF80937601042F4991089584B1876084B92398A5
:145B3A00089585E58CBD81E08DBD089522242CBC0895A895B7
:145B4E008AEF0E9489378F7E809338010EBD06C0A895209091
:145B6200380124FE01C003C02DB427FEF7CF08952090C00077
:145B760025FEFCCF0093C600089522242092C1002092C0000C
:145B8A0086E08093C200013021F48FE58093C40017C0023032
:145B9E0021F48FE28093C40011C0033021F487E18093C4003E
:145BB2000BC0043021F48BE08093C40005C0053019F485E01D
:145BC6008093C40022242092C500089588E98093C1000895B8
:145BDA000034E1E01E0718F0222420921D0180913D0182604E
:145BEE0080933D01846080933D010039E1E01E0708F016C030
:145C02000237E1E01E0730F080913D018B7F80933D010CC0D9
:145C16000A34E1E01E0718F00E94E03605C00E94E0368B7F0F
:145C2A0080933D0108957CD081D02AE030E00B5F1F4FF7D022
:145C3E00C80104969093800180937F018C01C6DF69C08C9A37
:145C520008958C9808958B9A08958B980895249A2C9A08953D
:145C6600249A2C980895C0D158016A972090B40133244424FC
:145C7A0055240E9452350E94C0360E94D1330E947F306FD1A5
:145C8E000E943034222433243F862E86B98AA88A0E94E732B6
:145CA2000E94A23542960E94E633025F1F4F0E940B09222417
:145CB60033243F822E8280E098E2998788870E9421339E0174
:145CCA002A5F3F4F8E010E5E1F4F0E94D1094FE057E260E022
:145CDE0070E02A843B844C845D840E94713238F48FE08A8753
:145CF20087E28B8780E08C878D870A851B856A966CC12224FA
:145D060033240E943D3820927A0080EC80937C0020927B00C7
:145D1A0083E080937E000895222420927A00089580917A004A
:145D2E008C6C80937A00089566D1AA24BB2444270FC0809110
:145D42007A00806480937A0080917A0080748034D9F30E94C1
:145D56005C37A20CB31C4395483078F3150136942794369409
:145D6A002794369427940E943D3881017ADF580149C12898D0
:145D7E0001E010E00C94E808289A01E010E00C94E808D0DEDF
:145D9200F4DFF8CF0E94ED3307C0A89520903B0122FE02C0CF
:145DA600002703C01B99F7CF01E008954A93F0DF002311F433
:145DBA00002710C0BEDE442709C00027C2DE82E492E00E94CD
:145DCE006C302EB4208243954330A8F3B5DE01E049910895D0
:145DE20041DF08EC10E00E94E80839DFD0CF0E94FC370895EE
:145DF6006894DA92D12E04C0E894DA92D12ED32617FF02C0B6
:145E0A000E94513837FF04C0309520952F5F3F4F09D0D7FE1B
:145E1E0002C00E945138D9900895689401C0E894EA92FA923C
:145E32008A93EE24FF2480E1000F111FEE1CFF1CE216F30654
:145E460018F0E21AF30A03958A95A1F716F40E2D1F2D89914D
:145E5A00F990E9900895E89401C068942DD0CC2408C0E8942B
:145E6E0001C0689427D037FDEED0B7FD47D0772488249924AB
:145E8200AA24BB2437D0B1F03AD0A1F0E8E20E944238771CA3
:145E9600881C991CAA1CBB1C88169906AA06BB0628F0881A9A
:145EAA00990AAA0ABB0A0395EA9569F726F4082D192D2A2D65
:145EBE003B2D0FC07A920E94ED37CA92EA930E944D358B85BA
:145ED2009C85AD85BE85C32E0EF0CB260895C7FCB8D00E94BC
:145EE600C334E991C9900E94B637799024960895E02FE12BD4
:145EFA00E22BE32B0895E82FE92BEA2BEB2B089580959095AF
:145F0E00A095B0958F5F9F4FAF4FBF4F0895689401C0E89447
:145F22002A93FA92EA92FF24EE2420E1000FFF1CEE1CE11645
:145F360010F0E11A03952A95B9F70EF40E2DE990F99029915C
:145F4A0008950A921A928A939A93029FC001129F900D039FC2
:145F5E00900D8C01999189911990099008957CD07A928BD02F
:145F720051F177248ED019F48C019D0124C00A921A92089FD5
:145F8600B02CA12C289F902C812C189FA00C911C871C099FD3
:145F9A00A00C911C871C199F900C811C0A9F900C811C389F4D
:145FAE00800C299F800C1A9F800C0B9F800C199009900B2D0A
:145FC2001A2D292D382D799057C00E94573508950E945735B0
:145FD600E990F99008950E945735E990F9904991599169912A
:145FEA00799108957A936A935A934A93FA92EA92DA92CA9258
:145FFE00BA92AA9208955A934A93BA92AA9208950E94613741
:1460120008950E94AC310895499159916991799108950E94BA
:14602600AC31BA92AA9208950E9461376991799108950E94E7
:14603A00AC31DA92CA92BA92AA9208950E9457354991599196
:14604E0069917991089500951095209530950F5F1F4F2F4F8F
:146062003F4F08950E94ED37EA930E944D3589859A85AB853B
:14607600BC8508950E94C334E9910E94B63724960895EE272A
:14608A00E02BE12BE22BE32B0895EE27E82BE92BEA2BEB2BCC
:14609E0008950F920990002021F00E9442380A94FACF0F90C4
